:020000040800F2
:10000000600B0020D5000008CD1600080D16000872
:1000100000000000000000000000000000000000E0
:100020000000000000000000000000009F1A00080F
:1000300000000000000000009D1A0008A11A00083E
:100040000501000805010008050100080501000878
:100050000501000805010008050100080501000868
:100060000501000805010008050100080501000858
:100070000501000805010008050100080501000848
:100080000501000800000000000000000501000854
:100090000000000005010008050100080501000836
:1000A0000000000005010008050100080501000826
:1000B00005010008000000000501000851260008A5
:1000C0000348854600F048F800480047E12700084B
:1000D000600B00200C4880F308880C480168090E6A
:1000E0000B4A914205D10B480B4901600B480C4962
:1000F00001600C4880470C480047FEE7FEE7FEE73A
:10010000FEE7FEE7FEE70000600B002004000000B1
:100110001F00000018100240010000000000014014
:10012000000000001D1B0008C100000830B50B4690
:10013000014600202022012409E00D46D5409D42C1
:1001400005D31D469540491B254695404019154647
:10015000521E002DF1DC30BD064C0125064E05E097
:10016000E36807CC2B430C3C98471034B442F7D3D8
:10017000FFF7AAFF782800089828000831B500F09A
:10018000B5F8009C0546601C00D0641C00F0AEF879
:10019000401BA042FAD338BDF8B5002389E0012402
:1001A0009C402A46A44622407ED04C68022C01D0B6
:1001B000122C0CD1DC08A40027183C6A5D07ED0E58
:1001C0000F26AE40B4430E69AE4026433E6205683A
:1001D0005E000324B4400F79A543BF07BF0FB740AB
:1001E0002F4307604D68012D05D0022D03D0112D3E
:1001F00001D0122D0ED18568CF68A543B7402F439B
:10020000876047686546AF430D79ED06ED0F9D4069
:100210003D434560C568A5438C68B4402C43C46029
:100220004C68E40044D5264CA56901263543A561F8
:10023000A4699D0834400094224CAD002F19BC687D
:100240009D072E0F0F25B540AC430925ED06A842AA
:1002500001D100250AE01C4DA84201D1012505E08D
:100260001A4DA84201D1022500E00525B5402543DD
:10027000BD60174C25684E689543F60300D51543BD
:10028000256065684E689543B60300D515436560E3
:10029000A5684E689543F60200D51543A560E5684C
:1002A0004E689543B60200E002E000D51543E560D4
:1002B0005B1C0A681546DA4000D070E7F8BD000004
:1002C00000100240000001400004004800080048FF
:1002D000000401400069084000D001207047002A56
:1002E00001D0816170478162704700000148006859
:1002F000704700000001002002480168491C0160AD
:10030000704700000001002010B506480168102267
:1003100011430160002000F007F800F017F80020FA
:1003200010BD00000020024010B5044600F00EFF92
:100330007D21C900FFF7FAFE01F04CF900222146A9
:10034000501E00F02FF8002010BD000008B50E4828
:10035000816901221143816180691040002200906F
:100360001146501F00F01EF800221146901E00F0AA
:1003700019F800221146501E00F014F803480168D5
:1003800010221143016008BD00100240000001402E
:10039000C106C90E0120884001490860704700006D
:1003A00000E100E010B501F093F910BD10B50C06A6
:1003B00006D54906490E1C2461430818283004E07C
:1003C0001C2461430818FF30093099B2002A06D076
:1003D00001228272C180190C0181002010BD00220F
:1003E00082728180F9E71C224A43121810B5FF304F
:1003F000FF300230926BC06901F0DFFD10BD1C229E
:100400004A43121810B5FF30FF32FF30013202307C
:100410009269C06901F02CFE10BD0000F0B54A06DB
:10042000520E13461C256A43CC091218002C01D029
:10043000283201E0FF32093204461370C909FF3443
:100440005170E134217A01293DD001212172957A40
:10045000494B002D4949557837D0002D056816784D
:10046000AC465BD0B600AD5B6F0404D5444F0D4085
:100470003D436746BD5305681678AC46B600AD5B94
:100480006F0605D53C4F0D4040373D436746BD5391
:1004900015780668AF00F55B0D4039490D43F553FB
:1004A000364F117830373D40066889001D4375523C
:1004B0001178334A00688900F13A15401D434552CE
:1004C00000202072F0BD0220F0BD002D05681678D6
:1004D000AC4610D0B600AD5B6F0605D50D40264981
:1004E00040310D4361468D5305681078234A8100E1
:1004F000685A30320EE0B600AD5B6F0404D50D4093
:100500001F490D4361468D53056810781C4A8100D0
:10051000685AF13A104018436852D1E7B600AD5B13
:100520006F0404D5164F0D403D436746BD53056823
:100530001678AC46B600AD5B6F0605D50E4F0D4084
:1005400040373D436746BD5315780768AE00BD5B35
:100550000D40094940310D43BD53094F1678F13F15
:100560003D400168B6001D438D531178034A890050
:1005700000683032A1E70000808000008F8F00000B
:1005800080C00000F0B54B06CA095B0E002A04D0FB
:100590001C225A431218283204E01C224A43121823
:1005A000FF3209320024947013700346C909FF33E7
:1005B0005170E133197A01291AD001211972517849
:1005C0001A4C00291178066814D08D00715B4F0613
:1005D00003D52140164C21437153117800688A00DD
:1005E000124C815A3034214010246140202414E000
:1005F0000220F0BD8D00715B4F0403D521400D4CEE
:1006000021437153117800688A000A4C815AF13CE9
:10061000214001242403614064006140044C403CBB
:100620002143815200201872F0BD00008F8F00001E
:10063000C080000080C00000F0B54D066D0E2E4653
:100640001C246543CF092C18002F01D0283401E069
:10065000FF3409342670C90961700146FF31E26038
:10066000E131E3708C46097A01290DD001226146FF
:100670000A72E2789349002A08D0012A20D0022A7F
:100680000DD0032A25D111E00220F0BD23780268A5
:100690009B00D55A0D40FF35FF35023504E0237825
:1006A00002689B00D55A0D40D55212E022780368AB
:1006B00092009D5A0D40032149026918995208E0A1
:1006C000237802689B00D55A0D40012189026918E0
:1006D000D15226780768B5007B5B7B497B4A0B408B
:1006E000134333437B53A57A002D53D02578784E9E
:1006F0000B400768AD0033437B53E38850265D0809
:1007000003686D00F65AF6182378DF0001239B0278
:10071000FB18F552238950265D0803686D00F65AD0
:10072000F6182378DF005311FB18F5526378076839
:10073000002B237875D09D007B5B5E0403D5654E4E
:100740000B4033437B53237807689D007B5B5E0639
:1007500004D55E4E0B40403633437B532378056807
:100760009E00AB5B0B405B490B43AB53564E21786D
:10077000303633400568890013436B522178554C5D
:1007800000688900F13C2340134343520020614636
:100790000872F0BD6378002BA3881FD05D08036842
:1007A0005026F65A6D00F6182378DF0001239B02CD
:1007B000FB18F552237807689D007B5B5E0604D525
:1007C0000B40424940310B437B53016820783E4C3B
:1007D0008300C85A30342040202440E05D0803687C
:1007E0005026F65A6D00F6182378DF003A4BFB18B6
:1007F000F55203685025ED5A374EEB182578B61C94
:10080000ED00AD195E19E3683E2B0BD9DD022D0C0E
:10081000DB0601D16D1EADB2AB020125ED032B430A
:1008200007E020E0DD032D0CDB0701D06D1CADB22D
:10083000AB023380237807689D007B5B5E0403D5A1
:100840000B4024490B437B5301682078214C8300E3
:10085000C85AF13C204001242403604064006040F9
:100860001043C85292E79D007B5B5E0403D5194E8E
:100870000B4033437B53237807689D007B5B5E0608
:1008800004D5124E0B40403633437B532378056822
:100890009E00AB5B0B400D4940310B43AB530D4EFB
:1008A0002178F13E334001263603734076007340D1
:1008B0000568890013436B522178034C8900006856
:1008C000303460E78F8900008F8F00008080000047
:1008D0008081000080C0000004040000F0B54906DB
:1008E000490E1C244C432418FF34093463612261EF
:1008F0000022A26103466270FF332170E133197A4E
:10090000012908D0012119726569E1688D4204D975
:100910006D1A656103E00220F0BD29466261A57A87
:10092000002D05D06578002D19D0012D37D059E064
:1009300005685026765B76192578EF00324D7D19D3
:1009400076193E293ED9CD022D0CC90637D0A90211
:100950000125ED03294300E0A902318042E005684A
:100960005026765B76192578EF00274D2D1F7D19CF
:1009700076193E290AD9CD022D0CCF0601D16D1E64
:10098000ADB2AD020127FF033D4306E0CD032D0CC0
:10099000CF0701D06D1CADB2AD02358009E005680E
:1009A0005026765B76192578EF00174D2D1F7D199F
:1009B00071536578002DBBD0012D0AD012E06D1E59
:1009C000ADB2C4E7CD032D0CC907C5D06D1CADB2C7
:1009D000C2E705685026765B76192578EF000A4D48
:1009E0007D197153217800688C00015B074D294007
:1009F00001252D0369406D006940054D29430153D0
:100A00001A720020F0BD0000060400008FBF000035
:100A100080800000F0B50246FF32E132137A012BEC
:100A20000BD001244F06CB097F0E1472002B06D089
:100A30001C237B431B18283306E00220F0BD1C2337
:100A40004B431B18FF3309339C701F70CE095E7037
:100A5000012424031025114B002F0BD04906C90D8A
:100A6000002E10D004680E4E605A30406840184383
:100A7000605210E001680B4E0888304060406840CA
:100A80001843088007E00568064E685A303E30403B
:100A900060401843685200201072F0BD8080000052
:100AA000BF8F0000BFBF0000F0B506464806400EED
:100AB0001C2141438D19EB630021AA6329640121A4
:100AC000283537466970FF372870E137387A0128B2
:100AD00006D03972EC686869A04203D9001B03E0B4
:100AE0000220F0BD044600206861A87A00280CD0DE
:100AF000297830688A00825C52066A783AD54B4B76
:100B0000002A13D0012A2DD032E0A3B2AA88296985
:100B1000306800F0B0FF30685021095A0918287871
:100B2000C2004248001F10180C526CE05022125AAA
:100B3000C9001018C91841183E2C0AD9E002000C4F
:100B4000E20601D1401E80B280020122D20310438E
:100B500006E0E003000CE20701D0401C80B28002F6
:100B6000088005E05022125AC9001018C9184452D2
:100B70002A892BE0002A02D0012A1ED025E050222B
:100B8000125AC90012182948001F081811183E2CC3
:100B90000AD9E002000CE20601D1401E80B28002B8
:100BA0000122D203104306E0E003000CE20701D06B
:100BB000401C80B28002088007E05022125A1018B0
:100BC000CA001A49091F51184452EA88A3B2296978
:100BD000306800F050FF69781548002902D00129DB
:100BE00009D010E0297832688900535A034011482F
:100BF0000343535207E02978336889005A5A024068
:100C00000D4802435A52287831688200084B885AAE
:100C1000303318401023584020235840054B403BA8
:100C20001843885200203872F0BD0000060400000E
:100C30008F8F0000C080000080C0000070B50446A7
:100C4000006840308088C00B02D0204600F062FD72
:100C500020684030818849050AD58188334A11408F
:100C60008180204600F0DAF80021204600F000F9EB
:100C7000206840308188490403D581882C4A11407E
:100C80008180206840308188890403D58188294A81
:100C9000114081802068403081880425C9040029E2
:100CA00010DA0188A9430180BD202168000240318B
:100CB0000880204600F0BEF82068403081881E4A37
:100CC00011408180206840308188090517D58188CE
:100CD0001A4A11408180206840300188082211435F
:100CE000018020684030018829430180206840301D
:100CF0008088C043C00402D5204600F0E3F8206895
:100D000040308188890506D581880D4A114081804F
:100D1000204600F0A5F8206840308188C90503D539
:100D20008188084A1140818070BD0000FFFB0000EF
:100D3000FFBF0000FFDF0000FFEF0000FFF7000033
:100D4000FFFD0000FFFE0000F8B500270446002864
:100D500007D02646FF36E136707A0025002802D0FB
:100D600005E00120F8BD3572204600F03BF8032075
:100D7000707201210BE01C207843021910462030CC
:100D800041720772C572556395637F1CD5636068B5
:100D9000B842F0D800200BE01C2242431219FF3267
:100DA000013255721072D57255619561401CD56142
:100DB00062688242F0D8206840300180206840306C
:100DC0000580206840308580206840300582BF2043
:100DD0002268000240321080203425717172002098
:100DE000F8BD000008B500680A49884210D10A48D9
:100DF000C2690121C9050A43C261C06900220840D5
:100E0000009011461F20FFF7CDFA1F20FFF7C0FA10
:100E100008BD0000005C00400010024010B5C41D79
:100E2000FF34FA340121E06901F013FAE06901F0BE
:100E3000D8F910BD10B504468069002806D00748CF
:100E4000016906229143016100F030FEFF34FF3456
:100E50000234E06901F0E8F910BD000000ED00E0A7
:100E6000FF3010B5FF300230C06901F0E3F910BD6A
:100E70000246FF32E132137A012B08D001231372AC
:100E8000002906D020300171002010727047022026
:100E900070470068802140308181F5E710B58721D7
:100EA00089000A580146FF31ED31104601F0E7F99B
:100EB00010BD00684030018B0122D2031143018331
:100EC0000020704710B50446FF30FF300230C06983
:100ED00001F02AFAA069002804D00348016906221B
:100EE0001143016110BD000000ED00E0F8B50446BB
:100EF00000683E4DC00352D5E8690026C00007D403
:100F0000E96928040143E961E9690140012600918A
:100F100037480168C90510D4016882151143016082
:100F2000FFF7E4F9074604E0FFF7E0F9C01B642887
:100F300024D82F480068C005F6D5286A03273F0249
:100F4000384020D06168394081421CD0286A2A6A22
:100F5000B843012109040A432A622A6A8A432A62A1
:100F60002862C0070FD0FFF7C1F9009008E0FFF733
:100F7000BDF90099411A1F48814201D90320F8BDEB
:100F8000286A8007F3D5286A6168B8430843286255
:100F9000002E04D0E969012000078143E96120782F
:100FA000C00705D0286BA16880088000084328632B
:100FB0002078800605D5286B10218843E168084316
:100FC00028632068800305D5286B802188436169E8
:100FD000084328632088400505D5286B40218843B5
:100FE0002169084328630020F8BD0000001002407A
:100FF0000070004088130000F8B505464E480E46C4
:101000000068C007C00FB0420AD24B4801684908C7
:101010004900314301600068C007C00FB04270D181
:101020002878464C800705D56068F0218843A96878
:10103000084360602878C00753D06868012817D03B
:10104000022818D0032819D021688907002958DA06
:1010500061688908890001436160FFF747F96968A1
:101060000746012913D002291DD0032927D034E0D7
:1010700021688903EAE721688901E7E7616BC90311
:10108000E4E7FFF733F9C11B2D48814223D860689C
:101090000007800F0128F4D123E0FFF727F9C11BD7
:1010A0002748814217D860680007800F0228F4D1D2
:1010B00017E0FFF71BF9C11B214881420BD860687C
:1010C0000007800F0328F4D10BE0FFF70FF9C11BD5
:1010D0001B48814201D90320F8BD60680007800FDA
:1010E000F3D115480168C907C90FB1420BD901688E
:1010F00049084900314301600068C007C00FB04291
:1011000001D00120F8BD2878400706D56068072186
:1011100009028843E9680843606000F01DF86168CF
:10112000084A0906090F515CC840074908600020B9
:10113000FFF7FAF80020F8BD00200240001002403E
:101140008813000068280008FC000020014800689F
:1011500070470000FC00002030B516A30FCB89B00B
:101160006C460FC417A30FCB0FC41A494A680C2052
:10117000144604401848042C05D0184B082C04D001
:101180000C2C00D1184609B030BD9402240F6D46D6
:101190002C5DC96A04AD0907090FD203695C920F7F
:1011A000022A02D0032A00D11846FEF7BFFF60438F
:1011B000E9E7000002030405060708090A0B0C0D05
:1011C0000E0F10100102030405060708090A0B0C94
:1011D0000D0E0F100010024000127A00006CDC02AD
:1011E000FEB504460078F04EF04DC00748D0686860
:1011F0000007800F01281FD068680007800F0228B1
:1012000004D16868C003800F022815D061680129E5
:1012100019D001208004002901D0052917D02968A0
:10122000B1432960296881432960606800281BD088
:10123000FFF75CF8074613E02868800320D5606854
:10124000002876D01CE0286830432860EDE7296844
:1012500001432960F7E7FFF749F8C01B642869D804
:1012600028688003F7D50BE0FFF740F8074604E055
:10127000FFF73CF8C01B6428F1D828688003F7D436
:10128000207880073ED568680007800F14D0686812
:101290000007800F022804D16868C003800F01286E
:1012A0000AD0E068002828681DD001210843286082
:1012B000FFF71CF807460BE0286880070BD5E068AD
:1012C000012836D107E0FFF711F8C01B0228C6D865
:1012D00028688007F7D52868F82188432169C90064
:1012E000084328600EE0400840002860FEF7FEFF3B
:1012F000074604E0FEF7FAFFC01B0228AFD82868B3
:101300008007F7D42078000724D5E0690028686AB0
:1013100011D0012108436862FEF7E8FF074604E0A8
:10132000FEF7E4FFC01B022899D8686A8007F7D54A
:1013300010E036E1D1E0400840006862FEF7D6FFD9
:10134000074604E0FEF7D2FFC01B022887D8686A70
:101350008007F7D4207804274007002861DA0020AE
:101360000190E869C00008D4E969B8060143E96161
:10137000E96901400120009101908D480168C9058B
:1013800011D40168821511430160FEF7AFFF009090
:1013900005E0FEF7ABFF0099401A642897D884480F
:1013A0000068C005F5D5A06801280AD0002801D042
:1013B000052811D0286A400840002862286AB843EE
:1013C00002E0286A012108432862A068002812D0A0
:1013D000FEF78CFF00900AE0286A38432862F0E7A5
:1013E000FEF784FF0099411A7248814275D8286A35
:1013F0008007F5D50DE0FEF779FF009006E0FEF7D7
:1014000075FF0099411A6B48814266D8286A8007A7
:10141000F5D40198002804D0E96901200007814330
:10142000E9612078C00635D5606901280CD0401DDF
:10143000686B24D038436863686B40084000686379
:10144000FEF754FF074622E0686B38436863686B19
:10145000012108436863FEF749FF074604E0FEF7F1
:1014600045FFC01B022838D8686B8007F7D5686B2A
:10147000F8218843A169C900084368630AE0B843BA
:101480006863F4E7FEF732FFC01B022825D8686BBB
:101490008007F7D42078800637D568680007800F6A
:1014A000032813D068680007800F022804D16868F9
:1014B000C003800F032809D0206A0028686B16D06B
:1014C00030436863FEF712FF06460CE0686BC0030A
:1014D0001BD5206A012864D117E05BE0FEF706FF08
:1014E000801B022856D8686BC003F7D50DE0B043C7
:1014F0006863FEF7FBFE064604E0FEF7F7FE801B7E
:10150000022847D8686BC003F7D4606A002846D029
:1015100069680907890F022943D001263606022887
:10152000286805D0B0432860FEF7E0FE044633E0AB
:10153000B0432860FEF7DAFE074604E0FEF7D6FE69
:10154000C01B022826D828688001F7D4E86A216BDE
:10155000000900010843E862A16AE06A084369687B
:101560007B22D20391430843686028683043286097
:10157000FEF7BCFE044604E0FEF7B8FE001B02289E
:1015800008D828688001F7D509E0FEF7AFFE001BF8
:10159000022801D90320FEBD28688001F5D400206F
:1015A000FEBD0120FEBD0000000001000010024051
:1015B00000700040881300000422044904280869D0
:1015C00002D09043086170471043FBE700E000E061
:1015D00070470000094910B5401E884201D901201A
:1015E00010BD074C60610321081F00F071F8002056
:1015F000A06107202061002010BD0000FFFFFF0058
:1016000000E000E010B5FFF7E3FF10BDFEE70000CB
:1016100070B5214886B04269012189040A434261BC
:1016200042690A400592426909010A4342614269DE
:101630000A400592426949110A4342614069174EC6
:1016400008400590002202213046FEF748FEFF20A8
:101650000130002401256A4631C269463046FEF752
:101660009BFD03206A4631C269460D48FEF794FD92
:101670000F206A4631C209206946C006FEF78CFD7C
:101680000220009002946946019503943046FEF7CB
:1016900083FD06B070BD0000001002400004004849
:1016A0000014004810B500220549064800F046FC29
:1016B0000549044800F067FE024800F0B5FE10BD81
:1016C000BC0000203805002000000020704700000A
:1016D0008307FF22DB0E9A408907090E99400028F4
:1016E0000BDA0007000F0838830808489B00181819
:1016F000C36993430B43C3617047830804489B004D
:101700001B181868904308431860704700ED00E00C
:1017100000E400E0F0B585B004460020694688800A
:101720002646203678E19A8917073F0F26D0B90060
:101730000291425A9A80998809047DD5BE490A408F
:101740000299425238461C2148430519FF35093594
:10175000A87A0028206870D029788A00825A52041A
:101760006CD55022125ACB00B44912185918515A4C
:101770008905890D00917DD0EA88BDE09A89D2065D
:1017800027D40188AE4A25461140018020685021A7
:10179000095A283508182978CA00A8495118405A0A
:1017A0008005800D2064A16B0818A06300212046ED
:1017B000FEF719FE30790028B4D068690028B1D14D
:1017C00030798021084321684031888100203071C0
:1017D00022E12546FF35028809359A809B881B0542
:1017E00019D5098A09182878C2009448001D1018D4
:1017F000085A294683059B0DAB61AA88E43120680D
:1018000000F024F920688C4A0188114001802046AC
:10181000FFF744FB00E1694689880904D8D5864969
:10182000864F0A40028020685021095A3F1D09183E
:101830002878C000C01902E085E03DE04FE0085A7A
:1018400083059B0DAB6108D0AA882969206800F048
:10185000FDF8A96928694018286100212046FEF793
:10186000CEFD206801464030008A4018C119E86862
:101870003E2800E044E00AD9C202120CC00601D1A1
:10188000521E92B290020122D203104306E0C2031C
:10189000120CC00701D0521C92B29002088021683D
:1018A000684A0888104001221203504052005040FC
:1018B000654A10430880AFE05021095A0A18297878
:1018C000CB005E49091D5918515A8905890D0091AF
:1018D00021D0AA882969009B00F0B8F81BE05022AB
:1018E000CB00125A55491218091D5918515A890529
:1018F000890D009104D02A892969009B00F0A6F87F
:10190000297820688A004E4B815A803319404E4B0B
:10191000403319438152A96900980818A8612969C0
:1019200000980A182A616B69002B03D0E9680098B7
:10193000814204D929782046FEF761FD03E0297829
:101940002046FEF7CBFF68468088000664D51C2041
:101950004743206802993A4A415A3D191140029A78
:1019600028358152A87A0028206811D029788A0069
:10197000825C52061ED55022125AC90012182F48F6
:101980000818105A83059B0DAB6124D0EA881EE02D
:101990005021095A09182878C20028481018085AF6
:1019A00083059B0DAB6121D0AA882969206800F0CE
:1019B00062F81BE05022125AC90012181F48001D7D
:1019C0000818105A83059B0DAB6104D02A89296938
:1019D000206800F050F8287822688000184B115ACF
:1019E00080331940174BF1331943115220685021AD
:1019F000095A09182878C20010481018085A80059A
:101A0000800DA86129690A182A616B692978002B61
:101A100020460DD0FFF748F82068014640318A88FB
:101A20006B469A81120400D57DE6002005B0F0BD1A
:101A3000FEF7D9FCF0E700008F0F00000204000061
:101A40000F8F00008FBF000080800000101810B5BD
:101A5000012292025C088018002C07D002880A70CC
:101A6000120A4A70801C891C641EF7D1DA0701D063
:101A70000078087010BD101801225B1C920210B58E
:101A80005B088018002B08D04A780C781202224399
:101A90000280801C891C5B1EF6D110BD7047704708
:101AA00010B5FEF729FCFFF7ADFD10BD10B598B0DD
:101AB0002020009001200024089009946846FFF738
:101AC0008FFB002800D0FEE707200D9003200E902A
:101AD0000F94012110940DA8FFF78EFA002800D072
:101AE000FEE7012040041694119011A8FFF7FEF9BB
:101AF000002800D0FEE7FFF729FB7D21C900FEF793
:101B000015FBFFF767FD0420FFF756FD0022114685
:101B1000501EFEF747FC18B010BD000013480168C6
:101B20000122114301604168114A1140416001687E
:101B3000104A114001600168012292049143016042
:101B400041683F22120491434160C16A09090901B9
:101B5000C162016BFF22D43291430163416B49089A
:101B6000490041630021816070470000001002407D
:101B70000CB8FF08FFFFF6FE10B585229200125840
:101B800052689047002010BD134610B50A46002148
:101B900000F014FB002010BD134610B50A460021CA
:101BA00000F0CAFB002010BD10B50446802100F0F3
:101BB00095FB0021204600F091FB10BD10B5FF21E0
:101BC0000522F5310A5000231A46194600F0F6FAAC
:101BD000002010BD10B5FF230224F5331C50826194
:101BE0001346C2610A46002100F0A6FB002010BD8A
:101BF00010B5FF210422F5310A5000231A46194678
:101C000000F09AFB002010BD10B50A46024903A05F
:101C100000F0D0F8004810BD0401002048494420DD
:101C2000436F6E66696700001220088000487047A5
:101C3000DC00002010B50A46024903A000F0BAF803
:101C4000004810BD0401002048494420496E7465D5
:101C500072666163650000000420088000487047D8
:101C6000D800002010B50A46024903A000F0A2F8EF
:101C7000004810BD0401002053544D6963726F6524
:101C80006C656374726F6E696373000010B50A4609
:101C9000024903A000F08EF8004810BD04010020A6
:101CA0004D6F5A68616E67204D6564696100000080
:101CB00010B50A46024903A000F07CF8004810BDA8
:101CC000040100203030303030303030303031419D
:101CD00000000000F8B50D4604464988FF300A0AA6
:101CE000FF300230130000F0BCFC0849050916491A
:101CF000493E46490069237C02682AE0217C02268D
:101D00004069002905D0C16A684688470146467087
:101D100040E0816AF8E7C9B20B0000F0A2FC0604BB
:101D2000080F13171E2F0069227C436802E0006928
:101D3000227C836869461046984712E00069227C3D
:101D4000C368F7E70069227C0369F3E70069237C35
:101D5000426969461846904703E00069227C83691E
:101D6000E8E7014616E0217C002907D14069416B74
:101D700068468847F5E7217C002904D0294620469B
:101D8000FFF712FFF8BD4069016B684688470722DC
:101D900001464270684600880028F3D0EA88002A8D
:101DA000F0D0824200D90246684602802046FFF702
:101DB00011FFF8BD70B5002300281CD00446002593
:101DC00002E06D1CEDB2641C2678002EF9D16C0087
:101DD000A41C1480CC5403225B1CCA5400245B1C3A
:101DE00006E0CA545B1CDAB28C54521CD3B2401CBD
:101DF0000278002AF5D170BDFF300021FF3002309B
:101E0000806901730846704710B50446812100F0CF
:101E1000C1F8FF34FF340234A069002803D000F079
:101E200011FC0020A061002010BD000022210180D3
:101E300000487047380000200A21018000487047A0
:101E40006800002070B50546002404230322812188
:101E500000F09EF9102000F0F7FBFF35FF3502354A
:101E6000A861002803D000210173204670BD012421
:101E7000FBE710B51346FF244322FD34D200245C57
:101E80001258032C08D1147B002C05D101241473A3
:101E90000A46812100F050FA002010BD70B543239E
:101EA0000022DB000D781B586026144635401BD0FD
:101EB000202D3ED14A78022A13D0032A0AD00A2ABA
:101EC0000BD00B2A03D0FFF76FFE022070BD88787D
:101ED00018602EE00122194622E04888000A586066
:101EE00027E00122191D1BE04D78062D04D00A2D94
:101EF00019D00B2D1DD11AE04B881B0A222B02D0C2
:101F0000212B06D00BE0CA88462A00D946220A4C6B
:101F100005E0094CCA88183C092A00D90922214643
:101F2000FFF758FE05E0012219460831F8E78878E6
:101F30009860002070BD00007400002010B50028DB
:101F400013D0C31DFF33FA335C69002C01D0002489
:101F50005C61002900D01961FF210123FD310B5480
:101F6000027000F0BFF8002010BD022010BD10B5B7
:101F7000FF30FF3002300024006AFEF703FB002828
:101F800006D0012801D0022801D0022400E001245B
:101F9000204610BD10B5FF30FF3002300024006A2B
:101FA000FEF73CFA002806D0012801D0022801D013
:101FB000022400E00124204610BDFEB50446FF3097
:101FC000E51DE130FF35FA3513460190002908D0B0
:101FD00068694269002A49D00198007F032843D0EC
:101FE00044E02646FF3681362046716F14300229C0
:101FF00034D1C26881680092914207D9891A816000
:102000008AB219462046FFF7C7FD13E04068114623
:102010000746FEF78BF8002913D10098874210D3AA
:10202000B06F87420DD2002211462046FFF7B4FD63
:102030000020B06700231A461946204600F0BEF87B
:102040000CE06869C168002905D00198007F032869
:1020500001D1204688472046FFF7B0FD28780128A7
:1020600004D10020287001E0204690470020FEBDEA
:1020700070B50546FF35E1352B462033164604463C
:10208000002907D058698269002A29D0287F0328AF
:1020900024D025E0FF21F531E01D0959FD30032949
:1020A0001ED18268C1688A420BD9511A8160C0680A
:1020B000814200D301468AB231462046FFF764FDD3
:1020C0000EE058690169002904D0287F032801D156
:1020D000204688472046FFF78BFD01E020469047C9
:1020E000002070BD10B51949C41DC861FF341849DE
:1020F000FA34184821620860022208208A60486089
:102100000020C8608861C8610A6108620846FEF75D
:102110001BFE002804D0FF2125310FA000F0A0FAFB
:10212000002218231146206AFEF740F958230022A6
:102130008021206AFEF73AF9FF2301330022812132
:10214000206AFEF733F9002010BD000018050020BA
:1021500018030020005C00402E2E2F5372632F7551
:102160007362645F636F6E662E630000FF30CA099E
:10217000FF3049060230490E1C23006A59430818F3
:10218000002A01D0203001E0FF300130807A704712
:1021900070B5FF301D46FF30023013460024006A40
:1021A0002A46FEF749FA002806D0012801D0022865
:1021B00001D0022400E00124204670BD10B5FF309C
:1021C000FF3002300024006AFEF788FB002806D0AA
:1021D000012801D0022801D0022400E00124204679
:1021E00010BD70B50022044640231146FFF7D0FF12
:1021F0004025FF20113005512B460022802120462A
:10220000FFF7C6FFFF200121FD3025620155E01DCB
:10221000FF30FA308169002904D040692179426891
:1022200020469047002070BDFF30E130417F0177AC
:102230000020704710B5FF21FD31095C032906D14C
:10224000852189000958C969002900D088470020E4
:1022500010BD01740020704710B5FF30FF30023010
:102260000024006AFEF704FE002806D0012801D0F1
:10227000022801D0022400E00124204610BD70B5E0
:1022800004464120C0002018054600F068F82146A9
:10229000FF3181310122084680304A67C2898A674E
:1022A000007AC106C90E0AD001290DD0022910D02A
:1022B000C109C901204600F011F8002070BD29466F
:1022C000204600F0B6F8F8E72946204600F09DF9D0
:1022D000F3E72946204600F023F9EEE710B5FF307A
:1022E000FF3002300024006AFEF794FB002806D07D
:1022F000012801D0022801D0022400E00124204658
:1023000010BD10B5FF30FF3002300024006AFEF728
:10231000D0FD002806D0012801D0022801D00224D7
:1023200000E00124204610BDFF30E130017F4177FD
:10233000042101770020704710B5FF30FF300230D4
:102340000024006AFEF7B0FB002806D0012801D067
:10235000022801D0022400E00124204610BD0A78A2
:1023600002704A784270CB788A781B02D218428079
:102370004B790A791B02D21882808A79C9790902BD
:102380005118C180704702460020002904D0FF3256
:10239000FF320232516170470220704710B585222A
:1023A000920012580224002A04D012689047002894
:1023B00000D10024204610BD70B50E468978194D15
:1023C00004462970012904D931462046FFF7ECFB69
:1023D00070BD2046FF30E130027F022A15D0032A6B
:1023E000F2D1002917D0606888420AD0C1B22046D5
:1023F000FFF7C2FB297861602046FFF7CFFF022874
:10240000E2D02046FFF7F4FB70BD0029F9D003228B
:1024100061600277F0E70222027720466160FFF7F1
:10242000ABFBEEE7BA00002010B5FFF76AFF002013
:1024300010BDF8B500220092C61DFF364C78174635
:10244000FA3632460125203A230000F00AF90A3C08
:10245000564150410906412B2841FFF73BFC5DE006
:1024600004468888002818D1C888002815D18878A3
:1024700017464606107F760E03280ED0BE773146EB
:102480002046FFF7E9FE2046FFF7B2FB002E02D000
:102490000220387742E03D7740E0204618E0FFF721
:1024A0008BFF3BE0CB88012B12D1127F022A02D096
:1024B000032A0DD104E0012201460831876013E0B0
:1024C0000122011D10E0127F022A04D0032A02D04B
:1024D000FFF76AFB22E0C5607168002901D0032183
:1024E000C160014602220C31FFF774FB16E004467E
:1024F0004888012812D1756009E00446107F02283F
:1025000001D00328C9D14888012807D177607069B4
:102510008268204690472046FFF76AFB0098F8BD86
:10252000F8B504460D462878E61D4006FF3600271C
:102530000979800FFA36012809D06A7830462038A8
:10254000002A38D0012A1ED0032A3DD106E0706946
:1025500029468268204690470020F8BD007F022867
:1025600017D003282CD16888002806D1002904D070
:10257000802902D02046FFF7B1FE706929468268A3
:102580002046904713E0007F022802D0032817D18D
:1025900004E0002918D080291AD115E068880028A5
:1025A00012D1480603D02046FFF7E1FCE5E72046BC
:1025B000FFF71EFB08E0007F022807D003280BD09E
:1025C00029462046FFF7F0FA3846F8BD4806FBD00A
:1025D0002046FFF783FEF7E7C80904D04806400D00
:1025E0000519143504E04806400D0519FF35053579
:1025F0002046FFF7BBFD002800D001202860022202
:1026000029462046FFF7E6FADEE770B50446FF30BC
:10261000E130007F0D4603280FD1287901280CD81E
:10262000852080000059826820469047E88800286D
:1026300006D12046FFF7DCFA02E02046FFF7B4FAA5
:10264000002070BD70470000004870470403002060
:1026500010B50248FEF7F2FA10BD00001803002082
:10266000FEE730B47446641E2578641CAB4200D289
:102670001D46635D5B00E31830BC184702E008C8E4
:10268000121F08C1002AFAD170477047002001E0EC
:1026900001C1121F002AFBD17047000070B5064D22
:1026A00000246E1D285D012802D1305D00F0C2F8C3
:1026B000641C052CF6DB70BDF1000020F8B5FF218D
:1026C00001314548FDF706FE012502260027434C4F
:1026D000002821D0277009200121C006FDF7FAFD4E
:1026E00000282CD0677009200821C006FDF7F2FDF4
:1026F000002837D0A77009200421C006FDF7EAFDA5
:10270000002842D0E77009200221C006FDF7E2FD53
:1027100000284DD02771F8BD0520FDF72FFDFF21C2
:1027200001312D48FDF7D6FD0028D4D120780028AE
:1027300003D00128CFD12670CDE72570CBE7052047
:10274000FDF71CFD09200121C006FDF7C3FD00288F
:10275000C9D16078002803D00128C4D16670C2E7CF
:102760006570C0E70520FDF709FD09200821C006B6
:10277000FDF7B0FD0028BED1A078002803D00128C5
:10278000B9D1A670B7E7A570B5E70520FDF7F6FC4F
:1027900009200421C006FDF79DFD0028B3D1E07893
:1027A000002803D00128AED1E670ACE7E570AAE7B7
:1027B0000520FDF7E3FC09200221C006FDF78AFD94
:1027C0000028A8D12079002803D00128A3D12671A0
:1027D000F8BD2571F8BD000000040048F10000209C
:1027E000FDF792FDFFF762F9FEF712FFFEF75AFFC1
:1027F0000E4D0F4C01212846FDF76CFD6070022143
:102800002846FDF767FDA070227861788A4206D0DD
:10281000814201D0022000E0012000F00BF8607836
:102820002070FFF74BFFFFF739FFE3E70014004884
:10283000EE00002008B50AA10968009169464870B9
:1028400003220848FFF715FB0F20FDF797FC002037
:102850006946487003220348FFF70BFB08BD0000E0
:102860000500000038050020000000000000000006
:102870000102030406070809982800080000002048
:10288000040100007C2600089C29000804010020A7
:102890005C0A00008C260008451E0008091E00087E
:1028A0009D1E00080000000000000000F91D000847
:1028B0000000000000000000000000000000000018
:1028C0002D1E00082D1E00082D1E0008391E0008B0
:1028D00009022200010100E03209040000010301A5
:1028E00002000921110100012246000705810304AD
:1028F000000A000009211101000122460000000029
:102900000A0600020000004001000000050C090159
:10291000A10185051500250109EA09E9750195025E
:10292000810609E29501810609CD9501810609B567
:102930009501810609B69501810609B395018106C5
:1029400009B4950181060A830195018106950781E5
:1029500007C00000291C0008591C0008651C00085D
:102960008D1C0008B11C0008091C0008351C00085B
:1029700004030904120100020000004083042C57E4
:102980000002010203010000000000000000080432
:0C2990002010040000127A00000000007B
:04000005080000C12E
:00000001FF
